:0400000080316828BB
:100008007E14803120007F08F200911D26282400EC
:100018001108F0007008F300760875060319212806
:100028007508F03E860087012030873D0108910061
:100038000130F0007008F50723287F309100200078
:1000480091116328111F5B2821001C08F00070081B
:10005800F40080307402031C34288030F4023828FD
:100068008030F0007008F40774087F3A031D4828B0
:100078007608F03EF000F1012030F13D700886006E
:10008800710887007E3053287608F03EF000F101B1
:100098002030F13D700886007108870074088100DF
:1000A8000130F0007008F6072000111363280B1DBB
:1000B800632815084E3E950021009D140B11720807
:1000C8002000FF007E10090080316A28F03084008B
:1000D800203085000030FE000130FF008031E12033
:1000E800F501F6017E10200080317A287830210051
:1000F80099041908FC39023899001A1C812826002D
:100108000C1121000C1122000C118B1355303C00EE
:100118008F00AA308F008F013D001508E039123892
:1001280095003C002008E0391038A0002108E0398B
:100138001138A10055308F00AA308F0001308F0090
:100148002A0015131512FC309505951721000C1679
:1001580011132000111323008C018E010C162100AD
:100168001D0883390C389D009E1370309E04FC30A6
:100178009E050F309F051D1411138C120E148E143A
:1001880020009111210091112400141394131512C9
:100198001508F039053895001716951621009115A0
:1001A8008B120B1195129511F83095058B160B17BC
:1001B8008B17413024009100E02864008001013150
:1001C8000130FE020030FF3B7F087E040319003433
:0201D800E2281B
:020000040001F9
:04000E00E4EFFFF725
:00000001FF
